{
  "_format": "hh3-artifact-1",
  "contractName": "ChangeMe",
  "sourceName": "contracts/ChangeMe.sol",
  "abi": [
    {
      "anonymous": false,
      "inputs": [
        {
          "indexed": false,
          "internalType": "string",
          "name": "",
          "type": "string"
        },
        {
          "indexed": false,
          "internalType": "uint256",
          "name": "",
          "type": "uint256"
        },
        {
          "indexed": false,
          "internalType": "address",
          "name": "",
          "type": "address"
        }
      ],
      "name": "NameChanged",
      "type": "event"
    },
    {
      "inputs": [],
      "name": "read",
      "outputs": [
        {
          "internalType": "string",
          "name": "",
          "type": "string"
        }
      ],
      "stateMutability": "view",
      "type": "function"
    },
    {
      "inputs": [
        {
          "internalType": "string",
          "name": "_name",
          "type": "string"
        }
      ],
      "name": "write",
      "outputs": [],
      "stateMutability": "nonpayable",
      "type": "function"
    }
  ],
  "bytecode": "0x6080604052348015600e575f5ffd5b506103f98061001c5f395ff3fe608060405234801561000f575f5ffd5b5060043610610034575f3560e01c806357de26a414610038578063ebaac77114610056575b5f5ffd5b61004061006b565b60405161004d9190610172565b60405180910390f35b61006961006436600461019f565b6100fa565b005b60605f805461007990610252565b80601f01602080910402602001604051908101604052809291908181526020018280546100a590610252565b80156100f05780601f106100c7576101008083540402835291602001916100f0565b820191905f5260205f20905b8154815290600101906020018083116100d357829003601f168201915b5050505050905090565b5f61010582826102d6565b507fd1ef0a7d9e0562541811e827dc5fc5ebcfaf363ff5f7b72a7a3663e9ee4b19bd81423360405161013993929190610391565b60405180910390a150565b5f81518084528060208401602086015e5f602082860101526020601f19601f83011685010191505092915050565b602081525f6101846020830184610144565b9392505050565b634e487b7160e01b5f52604160045260245ffd5b5f602082840312156101af575f5ffd5b813567ffffffffffffffff8111156101c5575f5ffd5b8201601f810184136101d5575f5ffd5b803567ffffffffffffffff8111156101ef576101ef61018b565b604051601f8201601f19908116603f0116810167ffffffffffffffff8111828210171561021e5761021e61018b565b604052818152828201602001861015610235575f5ffd5b816020840160208301375f91810160200191909152949350505050565b600181811c9082168061026657607f821691505b60208210810361028457634e487b7160e01b5f52602260045260245ffd5b50919050565b601f8211156102d157805f5260205f20601f840160051c810160208510156102af5750805b601f840160051c820191505b818110156102ce575f81556001016102bb565b50505b505050565b815167ffffffffffffffff8111156102f0576102f061018b565b610304816102fe8454610252565b8461028a565b6020601f821160018114610336575f831561031f5750848201515b5f19600385901b1c1916600184901b1784556102ce565b5f84815260208120601f198516915b828110156103655787850151825560209485019460019092019101610345565b508482101561038257868401515f19600387901b60f8161c191681555b50505050600190811b01905550565b606081525f6103a36060830186610144565b6020830194909452506001600160a01b039190911660409091015291905056fea26469706673582212200fae1ae89f4dae0f52fa89e27ddb3cd13cef2274526c03cb565a85d32f2a1d3b64736f6c634300081c0033",
  "linkReferences": {},
  "deployedLinkReferences": {},
  "immutableReferences": {},
  "inputSourceName": "project/contracts/ChangeMe.sol",
  "buildInfoId": "solc-0_8_28-a94be46bcd550c138367e0b8cb0bd61831131023"
}